{
  "contractName": "ContractA",
  "abi": [
    {
      "inputs": [
        {
          "internalType": "address",
          "name": "_token1",
          "type": "address"
        },
        {
          "internalType": "address",
          "name": "_token2",
          "type": "address"
        }
      ],
      "stateMutability": "nonpayable",
      "type": "constructor"
    },
    {
      "inputs": [
        {
          "internalType": "uint256",
          "name": "_amount",
          "type": "uint256"
        }
      ],
      "name": "trade",
      "outputs": [],
      "stateMutability": "nonpayable",
      "type": "function"
    }
  ],
  "bytecode": "0x608060405261138860025534801561001657600080fd5b5060405161087f38038061087f833981810160405281019061003891906100d5565b816000806101000a81548173ffffffffffffffffffffffffffffffffffffffff021916908373ffffffffffffffffffffffffffffffffffffffff16021790555080600160006101000a81548173ffffffffffffffffffffffffffffffffffffffff021916908373ffffffffffffffffffffffffffffffffffffffff160217905550505061015a565b6000815190506100cf81610143565b92915050565b600080604083850312156100e857600080fd5b60006100f6858286016100c0565b9250506020610107858286016100c0565b9150509250929050565b600061011c82610123565b9050919050565b600073ffffffffffffffffffffffffffffffffffffffff82169050919050565b61014c81610111565b811461015757600080fd5b50565b610716806101696000396000f3fe608060405234801561001057600080fd5b506004361061002b5760003560e01c8063df1dd82614610030575b600080fd5b61004a60048036038101906100459190610425565b61004c565b005b60008054906101000a900473ffffffffffffffffffffffffffffffffffffffff1673ffffffffffffffffffffffffffffffffffffffff166323b872dd3330846040518463ffffffff1660e01b81526004016100a9939291906104d5565b602060405180830381600087803b1580156100c357600080fd5b505af11580156100d7573d6000803e3d6000fd5b505050506040513d601f19601f820116820180604052508101906100fb91906103fc565b5060008054906101000a900473ffffffffffffffffffffffffffffffffffffffff1673ffffffffffffffffffffffffffffffffffffffff1663095ea7b3600160009054906101000a900473ffffffffffffffffffffffffffffffffffffffff16836040518363ffffffff1660e01b815260040161017992919061050c565b602060405180830381600087803b15801561019357600080fd5b505af11580156101a7573d6000803e3d6000fd5b505050506040513d601f19601f820116820180604052508101906101cb91906103fc565b506000600160009054906101000a900473ffffffffffffffffffffffffffffffffffffffff1673ffffffffffffffffffffffffffffffffffffffff166394b918de836040518263ffffffff1660e01b81526004016102299190610555565b602060405180830381600087803b15801561024357600080fd5b505af1158015610257573d6000803e3d6000fd5b505050506040513d601f19601f8201168201806040525081019061027b919061044e565b905060006102888261033f565b9050600160009054906101000a900473ffffffffffffffffffffffffffffffffffffffff1673ffffffffffffffffffffffffffffffffffffffff1663a9059cbb33836040518363ffffffff1660e01b81526004016102e792919061050c565b602060405180830381600087803b15801561030157600080fd5b505af1158015610315573d6000803e3d6000fd5b505050506040513d601f19601f8201168201806040525081019061033991906103fc565b50505050565b60008161271080846103519190610581565b61035b91906105b2565b1461039b576040517f08c379a000000000000000000000000000000000000000000000000000000000815260040161039290610535565b60405180910390fd5b612710600254836103ac91906105b2565b6103b69190610581565b9050919050565b6000815190506103cc816106b2565b92915050565b6000813590506103e1816106c9565b92915050565b6000815190506103f6816106c9565b92915050565b60006020828403121561040e57600080fd5b600061041c848285016103bd565b91505092915050565b60006020828403121561043757600080fd5b6000610445848285016103d2565b91505092915050565b60006020828403121561046057600080fd5b600061046e848285016103e7565b91505092915050565b6104808161060c565b82525050565b6000610493600983610570565b91507f746f6f20736d616c6c00000000000000000000000000000000000000000000006000830152602082019050919050565b6104cf8161064a565b82525050565b60006060820190506104ea6000830186610477565b6104f76020830185610477565b61050460408301846104c6565b949350505050565b60006040820190506105216000830185610477565b61052e60208301846104c6565b9392505050565b6000602082019050818103600083015261054e81610486565b9050919050565b600060208201905061056a60008301846104c6565b92915050565b600082825260208201905092915050565b600061058c8261064a565b91506105978361064a565b9250826105a7576105a6610683565b5b828204905092915050565b60006105bd8261064a565b91506105c88361064a565b9250817fffffffffffffffffffffffffffffffffffffffffffffffffffffffffffffffff048311821515161561060157610600610654565b5b828202905092915050565b60006106178261062a565b9050919050565b60008115159050919050565b600073ffffffffffffffffffffffffffffffffffffffff82169050919050565b6000819050919050565b7f4e487b7100000000000000000000000000000000000000000000000000000000600052601160045260246000fd5b7f4e487b7100000000000000000000000000000000000000000000000000000000600052601260045260246000fd5b6106bb8161061e565b81146106c657600080fd5b50565b6106d28161064a565b81146106dd57600080fd5b5056fea26469706673582212200c966987b7ee0bf7cc8606aa125c90a7bbd715b74b1f6a880cf8f2d2922f7a6664736f6c63430008000033",
  "immutableReferences": {},
  "source": "// SPDX-License-Identifier: MIT\npragma solidity >=0.4.22 <0.9.0;\n\nimport \"../node_modules/@openzeppelin/contracts/token/ERC20/IERC20.sol\";\n \ninterface Tk2 is IERC20 {\n  function swap(uint _amount) external returns (uint);\n}\n\ncontract ContractA{\n  IERC20 token1;\n  Tk2 token2;\n  \n  // uint fee = 100; // ==  1%\n  uint fee = 5000; // ==  50%\n\n    constructor(address _token1, address _token2) {\n      token1 = IERC20(_token1);\n      token2 = Tk2(_token2);\n    }\n\n    function calculateFee(uint amount) private view returns(uint){\n      //fee is currently 5_000 which means 50%\n      require((amount / 10_000) * 10_000 == amount, 'too small');\n      return (amount * fee) / 10_000;\n    }\n\n    function trade(uint _amount) external {\n      //first get permission from the scriptjs to have the token1 from the user\n      token1.transferFrom(msg.sender, address(this), _amount);\n      token1.approve(address(token2), _amount);\n      uint currentValue = token2.swap(_amount);\n      uint leftAfterFee = calculateFee(currentValue);\n      token2.transfer(msg.sender, leftAfterFee);\n    } \n\n}\n",
  "sourcePath": "/Volumes/APPLE HDD/reactprojects/borrow3/contracts/ContractA.sol",
  "compiler": {
    "name": "solc",
    "version": "0.8.0+commit.c7dfd78e.Emscripten.clang"
  },
  "schemaVersion": "3.4.3",
  "updatedAt": "2021-09-16T08:12:22.718Z",
  "networkType": "ethereum",
  "devdoc": {
    "kind": "dev",
    "methods": {},
    "version": 1
  },
  "userdoc": {
    "kind": "user",
    "methods": {},
    "version": 1
  }
}